:100000000C9462000C948A000C948A000C948A0070
:100010000C948A000C948A000C948A000C948A0038
:100020000C948A000C948A000C948A000C948A0028
:100030000C948A000C948A000C948A000C948A0018
:100040000C946E040C948A000C943C040C941604DA
:100050000C948A000C948A000C948A000C948A00F8
:100060000C948A000C948A000000000024002700F1
:100070002A0000000000250028002B0000000008D6
:10008000000201000003040700000000000000005F
:1000900000000000230026002900040404040404D6
:1000A0000404020202020202030303030303010227
:1000B00004081020408001020408102001020408F6
:1000C0001020FD0411241FBECFEFD8E0DEBFCDBF4E
:1000D00011E0A0E0B1E0EAE6F0E102C005900D9287
:1000E000A234B107D9F722E0A2E4B1E001C01D9229
:1000F000A030B207E1F710E0C2E6D0E004C02197DB
:10010000FE010E942D08C136D107C9F70E9448059B
:100110000C9433080C940000AF92BF92CF92DF9200
:10012000EF92FF920F931F93CF93DF936C017B01AC
:100130008B01040F151FEB015E01AE18BF08C0173D
:10014000D10759F06991D601ED91FC910190F081B0
:10015000E02DC6010995892B79F7C501DF91CF9173
:100160001F910F91FF90EF90DF90CF90BF90AF90D5
:100170000895FC01538D448D252F30E0842F90E0AD
:10018000821B930B541710F0CF9608950197089592
:10019000FC01918D828D981761F0A28DAE0FBF2F5B
:1001A000B11D5D968C91928D9F5F9F73928F90E0B1
:1001B00008958FEF9FEF0895FC01918D828D981720
:1001C00031F0828DE80FF11D858D90E008958FEF5D
:1001D0009FEF0895FC01918D228D892F90E0805C26
:1001E0009F4F821B91098F73992708958BE491E0AB
:1001F0000E94EA0021E0892B09F420E0822F089573
:1002000080E090E0892B29F00E94F60081110C9487
:1002100000000895FC01A48DA80FB92FB11DA35AA9
:10022000BF4F2C91848D90E001968F739927848F16
:10023000A689B7892C93A089B1898C918370806439
:100240008C93938D848D981306C00288F389E02DDA
:1002500080818F7D80830895EF92FF920F931F938B
:10026000CF93DF93EC0181E0888F9B8D8C8D981369
:100270001AC0E889F989808185FF15C09FB7F89475
:10028000EE89FF896083E889F989808183708064C1
:1002900080839FBF81E090E0DF91CF911F910F910C
:1002A000FF90EF900895F62E0B8D10E00F5F1F4F1B
:1002B0000F731127E02E8C8D8E110CC00FB607FC2A
:1002C000FACFE889F989808185FFF5CFCE010E94B8
:1002D0000A01F1CFEB8DEC0FFD2FF11DE35AFF4F1B
:1002E000F0829FB7F8940B8FEA89FB898081806246
:1002F000CFCFCF93DF93EC01888D8823B9F0AA8903
:10030000BB89E889F9898C9185FD03C0808186FDD0
:100310000DC00FB607FCF7CF8C9185FFF2CF80811F
:1003200085FFEDCFCE010E940A01E9CFDF91CF9189
:10033000089590E0FC01E458FF4F2491FC01E25540
:10034000FF4F3491FC01E656FF4FE491EE23C9F0D4
:10035000222339F0233001F1A8F4213019F12230A1
:1003600029F1F0E0EE0FFF1FEE58FF4FA591B49179
:100370008FB7F894EC91611126C030953E233C93E1
:100380008FBF08952730A9F02830C9F0243049F7ED
:10039000809180008F7D03C0809180008F77809353
:1003A0008000DFCF84B58F7784BDDBCF84B58F7DB0
:1003B000FBCF8091B0008F778093B000D2CF809137
:1003C000B0008F7DF9CF3E2BDACFCF93DF9390E053
:1003D000FC01E255FF4F249186569F4FFC0184910A
:1003E0008823D1F090E0880F991FFC01E859FF4F56
:1003F000A591B491FC01EE58FF4FC591D4916111C4
:100400000EC09FB7F8948C91E22FE0958E238C93C9
:100410002881E223E8839FBFDF91CF9108958FB7B2
:10042000F894EC91E22BEC938FBFF6CF3FB7F894A2
:100430008091470190914801A0914901B0914A01F2
:1004400026B5A89B05C02F3F19F00196A11DB11D2F
:100450003FBFBA2FA92F982F8827BC01CD01620F6B
:10046000711D811D911D42E0660F771F881F991F26
:100470004A95D1F708958F929F92AF92BF92CF92F3
:10048000DF92EF92FF924B015C010E9416026B011A
:100490007C010E9416026C197D098E099F09683E35
:1004A000734081059105A8F321E0821A9108A10803
:1004B000B10888EEC80E83E0D81EE11CF11C81143F
:1004C0009104A104B10429F7FF90EF90DF90CF9041
:1004D000BF90AF909F908F900895089590E080E036
:1004E0000895CF93DF93EC0160E08E810E94990123
:1004F00061E08E810E94990160E08E810E949901E5
:100500008BE891E00197F1F7DF91CF910895CF92B9
:10051000DF92EF92FF920F931F93CF93DF936C01C3
:100520007C0187E0E80EF11CD0E0C0E0062F10E06F
:10053000B8010C2E02C0759567950A94E2F76170B8
:10054000F70181917F010E9499012196C430D10564
:1005500079F7C601DF91CF911F910F91FF90EF9036
:10056000DF90CF900C947102CF92DF92EF92FF92C6
:100570000F931F93CF93DF93EC01F62E642F8C81A2
:100580000E9499018D818F3F19F060E00E949901CE
:100590000F2D10E08F8584FF25C06E0187E0C80E07
:1005A000D11CF12CE12CB8010E2C02C07595679579
:1005B0000A94E2F76170F60181916F010E9499013E
:1005C000FFEFEF1AFF0A88E0E816F10461F7CE01A9
:1005D000DF91CF911F910F91FF90EF90DF90CF901F
:1005E0000C947102B80184E0759567958A95E1F7DE
:1005F000CE010E9487026F2DCE01DF91CF911F9116
:100600000F91FF90EF90DF90CF900C94870240E025
:10061000682F88EE91E00C94B40281E00E940703F9
:100620008BE39FE10197F1F70895CF93DF9361305A
:1006300029F09091F70198609093F7016093FB0186
:100640001092FC0190E49093FD018093FE01805C88
:100650008093FF0161E08091EC010E94E5018091AF
:10066000ED018F3F19F061E00E94E50161E08091AA
:10067000EE010E94E501C8EED1E09E01285E314006
:100680008091F70184FD0BC084E090E0219628174B
:10069000390744F461E08E810E94E501EECF88E0E5
:1006A00090E0F4CF8BE39DE00197F1F760E080915B
:1006B000EC010E94990160E08091EE010E94990195
:1006C0008091ED018F3F19F060E00E9499018091C7
:1006D000F70184FD34C063E088EE91E00E94870258
:1006E000CBE4D6E4CE010197F1F763E088EE91E028
:1006F0000E9487022197F1F763E088EE91E00E9463
:10070000870283E592E00197F1F762E088EE91E0DD
:100710000E9487028091F70180620E94070384E0B3
:100720008093F8018CE00E9407030E940D0382E091
:100730008093F90186E0DF91CF910C9407038062EA
:100740000E9407038BE496E40197F1F78091F7018B
:1007500080620E94070383E592E00197F1F78091A0
:10076000F70180620E940703D5CF41E00E94B402E6
:1007700081E090E00895FB0101900020E9F73197B6
:10078000AF01461B570BDC01ED91FC910280F38118
:10079000E02D09948F929F92AF92BF92EF92FF92B9
:1007A0000F931F93CF93DF93CDB7DEB7A1970FB60B
:1007B000F894DEBF0FBECDBF7C01FA01CB0119A2B8
:1007C000223008F42AE08E010F5D1F4F822E912CFB
:1007D000B12CA12CBF01A50194010E940B08F901C5
:1007E000CA016A300CF5605DD8016E938D01232B30
:1007F000242B252B79F790E080E0109721F0BD01A4
:10080000C7010E94BB03A1960FB6F894DEBF0FBECE
:10081000CDBFDF91CF911F910F91FF90EF90BF90CF
:10082000AF909F908F900895695CDECF1F920F92DA
:100830000FB60F9211242F933F934F935F936F93B3
:100840007F938F939F93AF93BF93EF93FF938BE42B
:1008500091E00E940A01FF91EF91BF91AF919F91AA
:100860008F917F916F915F914F913F912F910F9059
:100870000FBE0F901F9018951F920F920FB60F92F8
:1008800011242F938F939F93EF93FF93E0915B013C
:10089000F0915C018081E0916101F091620182FD43
:1008A0001BC09081809164018F5F8F7320916501DF
:1008B000821741F0E0916401F0E0E55BFE4F958F17
:1008C00080936401FF91EF919F918F912F910F90F1
:1008D0000FBE0F901F9018958081F4CF1F920F923A
:1008E0000FB60F9211242F933F938F939F93AF9343
:1008F000BF938091430190914401A0914501B09133
:1009000046013091420123E0230F2D3758F501961F
:10091000A11DB11D20934201809343019093440196
:10092000A0934501B0934601809147019091480101
:10093000A0914901B0914A010196A11DB11D80937A
:10094000470190934801A0934901B0934A01BF9198
:10095000AF919F918F913F912F910F900FBE0F906C
:100960001F90189526E8230F0296A11DB11DD2CF26
:10097000CF92DF92EF92FF920F931F93E82FF92F00
:1009800005C0015011092109310961F190819623B7
:100990009417B9F305C0015011092109310911F16A
:1009A000908196239413F7CFC12CD12CE12CF12CFC
:1009B0000AC08FEFC81AD80AE80AF80A0C151D05F4
:1009C0002E053F0579F080818623841791F36C2DE5
:1009D0007D2D8E2D9F2D1F910F91FF90EF90DF9019
:1009E000CF90089560E070E080E090E01F910F915B
:1009F000FF90EF90DF90CF900895EBE4F1E0138249
:100A0000128288EE93E0A0E0B0E084839583A68311
:100A1000B78384E091E09183808385EC90E09587B3
:100A2000848784EC90E09787868780EC90E0918BB8
:100A3000808B81EC90E0938B828B82EC90E0958BA5
:100A4000848B86EC90E0978B868B118E128E138EA2
:100A5000148EE8EEF1E01382128286E191E0918338
:100A6000808387E084838FEF858386E0868385E0BB
:100A7000878384E0808783E0818782E08287138692
:100A8000148615861686178661E080E10C9415039E
:100A9000789484B5826084BD84B5816084BD85B559
:100AA000826085BD85B5816085BD80916E00816065
:100AB00080936E001092810080918100826080930B
:100AC000810080918100816080938100809180000D
:100AD0008160809380008091B10084608093B10038
:100AE0008091B00081608093B00080917A00846032
:100AF00080937A0080917A00826080937A0080915E
:100B00007A00816080937A0080917A008068809377
:100B10007A001092C100E0915B01F0915C0182E0EB
:100B20008083E0915701F09158011082E0915901C2
:100B3000F0915A018FEC808310926301E0915F0184
:100B4000F091600186E08083E0915D01F0915E01AB
:100B5000808180618083E0915D01F0915E01808100
:100B600088608083E0915D01F0915E018081806802
:100B70008083E0915D01F0915E0180818F7D8083B3
:100B800061E088E00E94E50160E089E00E94E50103
:100B900064E084E10E941503E091FB01E23008F07B
:100BA00000C1E150F0E0E851FE4F848980680E9466
:100BB000070360E971E080E090E00E943B020E9440
:100BC0000D0368EE73E080E090E00E943B02C3E01A
:100BD000D0E043E2E42EF12C57EBC52E50E0D52EA9
:100BE00063EAA62E60E0B62E70E0872E70E0972EA6
:100BF00060E088E00E949901CE010197F1F761E081
:100C000088E00E949901C7010197F1F760E088E050
:100C10000E949901F6016491F5018491E82FF0E0BA
:100C2000EE0FFF1FE057FF4F8591949100E412E40F
:100C30002FE030E0462F0E94B80461157105810550
:100C4000910529F06F5F7F4F8F4F9F4F9F70959554
:100C50008795779567950E947F072DEC3CEC48EED1
:100C600051E40E94D5060E9447072B013C01F8E1A0
:100C70004F165104610471047CF50E940D03E0914C
:100C8000FB01E23008F08FC0E150F0E0E851FE4F88
:100C9000848980680E9407036FE171E088EE91E02B
:100CA0000E94BB036EE171E08BE491E00E94BB0304
:100CB0006FE271E08BE491E00E94BB0360E971E0B8
:100CC00080E090E00E943B020E940D0368EC70E01F
:100CD00080E090E00E943B02E1E08091FB01811105
:100CE000E0E0E195F0E0E851FE4F84898F5F806895
:100CF0000E94070362E371E088EE91E00E94BB036B
:100D00002AE0B301A20177FE0EC041E06DE288EE59
:100D100091E00E94B40244275527BA0144195509AD
:100D2000660977092AE088EE91E00E94CA036EE323
:100D300071E088EE91E00E94BB032AE0B301A201BA
:100D400077FE0DC06DE28BE491E00E942C014427F8
:100D50005527BA0144195509660977092AE08BE439
:100D600091E00E94CA036DE371E08BE491E00E9480
:100D7000BB036FE271E08BE491E00E94BB0364EF80
:100D800071E080E090E00E943B028114910409F43C
:100D90002FCF0E94F600882309F42ACF0E9400007A
:100DA00027CFE1E0FFCEE1E070CF0E94E9060C948E
:100DB000D1070E94CA0758F00E94C30740F029F4E7
:100DC0005F3F29F00C94BA0751110C9405080C945C
:100DD000C0070E94E20768F39923B1F3552391F30A
:100DE000951B550BBB27AA2762177307840738F09A
:100DF0009F5F5F4F220F331F441FAA1FA9F335D0F7
:100E00000E2E3AF0E0E832D091505040E695001CAA
:100E1000CAF72BD0FE2F29D0660F771F881FBB1F64
:100E2000261737074807AB07B0E809F0BB0B802D42
:100E3000BF01FF2793585F4F3AF09E3F510578F06E
:100E40000C94BA070C9405085F3FE4F3983ED4F382
:100E5000869577956795B795F7959F5FC9F7880F42
:100E6000911D9695879597F90895E1E0660F771F94
:100E7000881FBB1F621773078407BA0720F0621B25
:100E8000730B840BBA0BEE1F88F7E09508950E9450
:100E90004E076894B1110C94050808950E94EA0762
:100EA00088F09F5798F0B92F9927B751B0F0E1F02B
:100EB000660F771F881F991F1AF0BA95C9F714C0DB
:100EC000B13091F00E940408B1E008950C94040838
:100ED000672F782F8827B85F39F0B93FCCF3869514
:100EE00077956795B395D9F73EF490958095709571
:100EF00061957F4F8F4F9F4F0895E89409C097FBEE
:100F00003EF490958095709561957F4F8F4F9F4FE0
:100F10009923A9F0F92F96E9BB279395F695879524
:100F200077956795B795F111F8CFFAF4BB0F11F4E7
:100F300060FF1BC06F5F7F4F8F4F9F4F16C088238E
:100F400011F096E911C0772321F09EE8872F762FC4
:100F500005C0662371F096E8862F70E060E02AF005
:100F60009A95660F771F881FDAF7880F96958795F1
:100F700097F9089597F99F6780E870E060E0089519
:100F80009FEF80EC089500240A94161617061806A1
:100F90000906089500240A9412161306140605067D
:100FA0000895092E0394000C11F4882352F0BB0F0E
:100FB00040F4BF2B11F460FF04C06F5F7F4F8F4F71
:100FC0009F4F089557FD9058440F551F59F05F3FAC
:100FD00071F04795880F97FB991F61F09F3F79F05B
:100FE00087950895121613061406551FF2CF4695DD
:100FF000F1DF08C0161617061806991FF1CF86955F
:101000007105610508940895E894BB276627772742
:10101000CB0197F90895A1E21A2EAA1BBB1BFD0173
:101020000DC0AA1FBB1FEE1FFF1FA217B307E407C7
:10103000F50720F0A21BB30BE40BF50B661F771F1F
:10104000881F991F1A9469F76095709580959095FF
:101050009B01AC01BD01CF010895EE0FFF1F05906C
:0A106000F491E02D0994F894FFCFFD
:10106A00000000002C018C00B9007901EA00C800D8
:10107A00DC0000000000B5038C006E026D022048FF
:10108A007572646C65204465746563746564000DEB
:10109A000A0044697374616E63653D200020636DC4
:0210AA00000044
:00000001FF
